{
  "contractName": "ETHDenverStaking",
  "abi": [
    {
      "constant": true,
      "inputs": [
        {
          "name": "_operator",
          "type": "address"
        },
        {
          "name": "_role",
          "type": "string"
        }
      ],
      "name": "checkRole",
      "outputs": [],
      "payable": false,
      "stateMutability": "view",
      "type": "function"
    },
    {
      "constant": false,
      "inputs": [
        {
          "name": "_bouncer",
          "type": "address"
        }
      ],
      "name": "removeBouncer",
      "outputs": [],
      "payable": false,
      "stateMutability": "nonpayable",
      "type": "function"
    },
    {
      "constant": true,
      "inputs": [
        {
          "name": "_operator",
          "type": "address"
        },
        {
          "name": "_role",
          "type": "string"
        }
      ],
      "name": "hasRole",
      "outputs": [
        {
          "name": "",
          "type": "bool"
        }
      ],
      "payable": false,
      "stateMutability": "view",
      "type": "function"
    },
    {
      "constant": false,
      "inputs": [],
      "name": "unpause",
      "outputs": [],
      "payable": false,
      "stateMutability": "nonpayable",
      "type": "function"
    },
    {
      "constant": true,
      "inputs": [],
      "name": "paused",
      "outputs": [
        {
          "name": "",
          "type": "bool"
        }
      ],
      "payable": false,
      "stateMutability": "view",
      "type": "function"
    },
    {
      "constant": false,
      "inputs": [],
      "name": "renounceOwnership",
      "outputs": [],
      "payable": false,
      "stateMutability": "nonpayable",
      "type": "function"
    },
    {
      "constant": false,
      "inputs": [],
      "name": "pause",
      "outputs": [],
      "payable": false,
      "stateMutability": "nonpayable",
      "type": "function"
    },
    {
      "constant": false,
      "inputs": [
        {
          "name": "_bouncer",
          "type": "address"
        }
      ],
      "name": "addBouncer",
      "outputs": [],
      "payable": false,
      "stateMutability": "nonpayable",
      "type": "function"
    },
    {
      "constant": true,
      "inputs": [],
      "name": "authorizedStakeGrantAddress",
      "outputs": [
        {
          "name": "",
          "type": "address"
        }
      ],
      "payable": false,
      "stateMutability": "view",
      "type": "function"
    },
    {
      "constant": true,
      "inputs": [],
      "name": "owner",
      "outputs": [
        {
          "name": "",
          "type": "address"
        }
      ],
      "payable": false,
      "stateMutability": "view",
      "type": "function"
    },
    {
      "constant": true,
      "inputs": [
        {
          "name": "",
          "type": "address"
        }
      ],
      "name": "userStakedAddress",
      "outputs": [
        {
          "name": "",
          "type": "address"
        }
      ],
      "payable": false,
      "stateMutability": "view",
      "type": "function"
    },
    {
      "constant": true,
      "inputs": [],
      "name": "ROLE_BOUNCER",
      "outputs": [
        {
          "name": "",
          "type": "string"
        }
      ],
      "payable": false,
      "stateMutability": "view",
      "type": "function"
    },
    {
      "constant": true,
      "inputs": [],
      "name": "authorizedRecoupStakeGrantAddress",
      "outputs": [
        {
          "name": "",
          "type": "address"
        }
      ],
      "payable": false,
      "stateMutability": "view",
      "type": "function"
    },
    {
      "constant": false,
      "inputs": [
        {
          "name": "_newOwner",
          "type": "address"
        }
      ],
      "name": "transferOwnership",
      "outputs": [],
      "payable": false,
      "stateMutability": "nonpayable",
      "type": "function"
    },
    {
      "constant": true,
      "inputs": [
        {
          "name": "",
          "type": "address"
        }
      ],
      "name": "stakedAmount",
      "outputs": [
        {
          "name": "",
          "type": "uint256"
        }
      ],
      "payable": false,
      "stateMutability": "view",
      "type": "function"
    },
    {
      "anonymous": false,
      "inputs": [
        {
          "indexed": false,
          "name": "userAddress",
          "type": "address"
        },
        {
          "indexed": false,
          "name": "stakedBy",
          "type": "address"
        },
        {
          "indexed": false,
          "name": "amountStaked",
          "type": "uint256"
        }
      ],
      "name": "UserStake",
      "type": "event"
    },
    {
      "anonymous": false,
      "inputs": [
        {
          "indexed": false,
          "name": "userAddress",
          "type": "address"
        },
        {
          "indexed": false,
          "name": "stakedBy",
          "type": "address"
        },
        {
          "indexed": false,
          "name": "amountStaked",
          "type": "uint256"
        }
      ],
      "name": "UserRecoupStake",
      "type": "event"
    },
    {
      "anonymous": false,
      "inputs": [
        {
          "indexed": false,
          "name": "_msg",
          "type": "bytes32"
        }
      ],
      "name": "debugBytes32",
      "type": "event"
    },
    {
      "anonymous": false,
      "inputs": [
        {
          "indexed": false,
          "name": "_msg",
          "type": "bytes"
        }
      ],
      "name": "debugBytes",
      "type": "event"
    },
    {
      "anonymous": false,
      "inputs": [
        {
          "indexed": false,
          "name": "_msg",
          "type": "string"
        }
      ],
      "name": "debugString",
      "type": "event"
    },
    {
      "anonymous": false,
      "inputs": [
        {
          "indexed": false,
          "name": "_address",
          "type": "address"
        }
      ],
      "name": "debugAddress",
      "type": "event"
    },
    {
      "anonymous": false,
      "inputs": [],
      "name": "Pause",
      "type": "event"
    },
    {
      "anonymous": false,
      "inputs": [],
      "name": "Unpause",
      "type": "event"
    },
    {
      "anonymous": false,
      "inputs": [
        {
          "indexed": true,
          "name": "operator",
          "type": "address"
        },
        {
          "indexed": false,
          "name": "role",
          "type": "string"
        }
      ],
      "name": "RoleAdded",
      "type": "event"
    },
    {
      "anonymous": false,
      "inputs": [
        {
          "indexed": true,
          "name": "operator",
          "type": "address"
        },
        {
          "indexed": false,
          "name": "role",
          "type": "string"
        }
      ],
      "name": "RoleRemoved",
      "type": "event"
    },
    {
      "anonymous": false,
      "inputs": [
        {
          "indexed": true,
          "name": "previousOwner",
          "type": "address"
        }
      ],
      "name": "OwnershipRenounced",
      "type": "event"
    },
    {
      "anonymous": false,
      "inputs": [
        {
          "indexed": true,
          "name": "previousOwner",
          "type": "address"
        },
        {
          "indexed": true,
          "name": "newOwner",
          "type": "address"
        }
      ],
      "name": "OwnershipTransferred",
      "type": "event"
    },
    {
      "constant": false,
      "inputs": [
        {
          "name": "_signer",
          "type": "address"
        }
      ],
      "name": "setAuthorizedStakeGrantAddress",
      "outputs": [],
      "payable": false,
      "stateMutability": "nonpayable",
      "type": "function"
    },
    {
      "constant": false,
      "inputs": [
        {
          "name": "_signer",
          "type": "address"
        }
      ],
      "name": "setAuthorizedRecoupStakeGrantAddress",
      "outputs": [],
      "payable": false,
      "stateMutability": "nonpayable",
      "type": "function"
    },
    {
      "constant": false,
      "inputs": [
        {
          "name": "_userAddress",
          "type": "address"
        },
        {
          "name": "_expiringDate",
          "type": "uint256"
        },
        {
          "name": "_signature",
          "type": "bytes"
        }
      ],
      "name": "stake",
      "outputs": [],
      "payable": true,
      "stateMutability": "payable",
      "type": "function"
    },
    {
      "constant": false,
      "inputs": [
        {
          "name": "_userAddress",
          "type": "address"
        },
        {
          "name": "_expiringDate",
          "type": "uint256"
        },
        {
          "name": "_signature",
          "type": "bytes"
        }
      ],
      "name": "stake2",
      "outputs": [],
      "payable": true,
      "stateMutability": "payable",
      "type": "function"
    },
    {
      "constant": false,
      "inputs": [
        {
          "name": "_userAddress",
          "type": "address"
        },
        {
          "name": "_expiringDate",
          "type": "uint256"
        },
        {
          "name": "_signature",
          "type": "bytes"
        }
      ],
      "name": "recoupStake",
      "outputs": [],
      "payable": false,
      "stateMutability": "nonpayable",
      "type": "function"
    }
  ],
  "bytecode": "0x60806040526002805474c1e19bdd3dbba6c070579083e3b0d4c92fcae0b300600160a860020a031990911617905560038054600160a060020a031990811673c1e19bdd3dbba6c070579083e3b0d4c92fcae0b3179091556000805490911633179055611697806100706000396000f3006080604052600436106101115763ffffffff7c01000000000000000000000000000000000000000000000000000000006000350416630988ca8c81146101165780631479290e1461017f578063217fe6c6146101a0578063384771021461021b5780633e12170f146102775780633f4ba83a146102d3578063576dc572146102e85780635c975abb14610309578063715018a61461031e5780638456cb5914610333578063888764c8146103485780638bc1ec25146103695780638da5cb5b1461039a578063b8d65042146103af578063d466ab6b146103d0578063f01fc9491461045a578063f2fde38b1461046f578063f5a15f6d14610490578063f9931855146104f9578063fd1a7cd71461052c575b600080fd5b34801561012257600080fd5b5060408051602060046024803582810135601f810185900485028601850190965285855261017d958335600160a060020a031695369560449491939091019190819084018382808284375094975061054d9650505050505050565b005b34801561018b57600080fd5b5061017d600160a060020a03600435166105bb565b3480156101ac57600080fd5b5060408051602060046024803582810135601f8101859004850286018501909652858552610207958335600160a060020a03169536956044949193909101919081908401838280828437509497506106179650505050505050565b604080519115158252519081900360200190f35b604080516020600460443581810135601f810184900484028501840190955284845261017d948235600160a060020a031694602480359536959460649492019190819084018382808284375094975061068a9650505050505050565b604080516020600460443581810135601f810184900484028501840190955284845261017d948235600160a060020a03169460248035953695946064949201919081908401838280828437509497506107f39650505050505050565b3480156102df57600080fd5b5061017d610a13565b3480156102f457600080fd5b5061017d600160a060020a0360043516610a70565b34801561031557600080fd5b50610207610ab6565b34801561032a57600080fd5b5061017d610abf565b34801561033f57600080fd5b5061017d610b2b565b34801561035457600080fd5b5061017d600160a060020a0360043516610b8a565b34801561037557600080fd5b5061037e610be3565b60408051600160a060020a039092168252519081900360200190f35b3480156103a657600080fd5b5061037e610bf7565b3480156103bb57600080fd5b5061037e600160a060020a0360043516610c06565b3480156103dc57600080fd5b506103e5610c21565b6040805160208082528351818301528351919283929083019185019080838360005b8381101561041f578181015183820152602001610407565b50505050905090810190601f16801561044c5780820380516001836020036101000a031916815260200191505b509250505060405180910390f35b34801561046657600080fd5b5061037e610c46565b34801561047b57600080fd5b5061017d600160a060020a0360043516610c55565b34801561049c57600080fd5b50604080516020600460443581810135601f810184900484028501840190955284845261017d948235600160a060020a0316946024803595369594606494920191908190840183828082843750949750610c759650505050505050565b34801561050557600080fd5b5061051a600160a060020a0360043516610f10565b60408051918252519081900360200190f35b34801561053857600080fd5b5061017d600160a060020a0360043516610f22565b6105b7826001836040518082805190602001908083835b602083106105835780518252601f199092019160209182019101610564565b51815160209384036101000a6000190180199092169116179052920194855250604051938490030190922092915050610f6e565b5050565b600054600160a060020a031633146105d257600080fd5b600160a060020a03811615156105e757600080fd5b6106148160408051908101604052806007815260200160008051602061164c833981519152815250610f83565b50565b6000610683836001846040518082805190602001908083835b6020831061064f5780518252601f199092019160209182019101610630565b51815160209384036101000a6000190180199092169116179052920194855250604051938490030190922092915050611094565b9392505050565b8061069533826110b3565b15156106a057600080fd5b4283116106f7576040805160e560020a62461bcd02815260206004820152601060248201527f4772616e74206973206578706972656400000000000000000000000000000000604482015290519081900360640190fd5b600160a060020a038085166000908152600460205260409020541615610767576040805160e560020a62461bcd02815260206004820152601760248201527f557365722068617320616c7265616479207374616b6521000000000000000000604482015290519081900360640190fd5b600160a060020a038416600081815260056020908152604080832034908190556004835292819020805473ffffffffffffffffffffffffffffffffffffffff19163390811790915581519485529184019190915282810191909152517f3e11a7cacbb7ece302eb29576a224b92ab22a9b581a2c69db73bc14510c3e0c39181900360600190a150505050565b6000808434856040516020018084600160a060020a0316600160a060020a03166c0100000000000000000000000002815260140183815260200182815260200193505050506040516020818303038152906040526040518082805190602001908083835b602083106108765780518252601f199092019160209182019101610857565b6001836020036101000a038019825116818451168082178552505050505050905001915050604051809103902091506108c2836108b684600019166112ef565b9063ffffffff61139916565b600254909150600160a060020a03808316610100909204161461092f576040805160e560020a62461bcd02815260206004820152601660248201527f5369676e6174757265206973206e6f742076616c696400000000000000000000604482015290519081900360640190fd5b428411610986576040805160e560020a62461bcd02815260206004820152601060248201527f4772616e74206973206578706972656400000000000000000000000000000000604482015290519081900360640190fd5b600160a060020a038516600081815260056020908152604080832034908190556004835292819020805473ffffffffffffffffffffffffffffffffffffffff19163390811790915581519485529184019190915282810191909152517f3e11a7cacbb7ece302eb29576a224b92ab22a9b581a2c69db73bc14510c3e0c39181900360600190a15050505050565b600054600160a060020a03163314610a2a57600080fd5b60025460ff161515610a3b57600080fd5b6002805460ff191690556040517f7805862f689e2f13df9f062ff482ad3ad112aca9e0847911ed832e158c525b3390600090a1565b600054600160a060020a03163314610a8757600080fd5b6003805473ffffffffffffffffffffffffffffffffffffffff1916600160a060020a0392909216919091179055565b60025460ff1681565b600054600160a060020a03163314610ad657600080fd5b60008054604051600160a060020a03909116917ff8df31144d9c2f0f6b59d69b8b98abd5459d07f2742c4df920b25aae33c6482091a26000805473ffffffffffffffffffffffffffffffffffffffff19169055565b600054600160a060020a03163314610b4257600080fd5b60025460ff1615610b5257600080fd5b6002805460ff191660011790556040517f6985a02210a168e66602d3235cb6db0e70f92b3ba4d376a33c0f3d9434bff62590600090a1565b600054600160a060020a03163314610ba157600080fd5b600160a060020a0381161515610bb657600080fd5b6106148160408051908101604052806007815260200160008051602061164c83398151915281525061146e565b6002546101009004600160a060020a031681565b600054600160a060020a031681565b600460205260009081526040902054600160a060020a031681565b604080518082019091526007815260008051602061164c833981519152602082015281565b600354600160a060020a031681565b600054600160a060020a03163314610c6c57600080fd5b61061481611540565b60008060008086866040516020018083600160a060020a0316600160a060020a03166c01000000000000000000000000028152601401828152602001925050506040516020818303038152906040526040518082805190602001908083835b60208310610cf35780518252601f199092019160209182019101610cd4565b6001836020036101000a03801982511681845116808217855250505050505090500191505060405180910390209350610d33856108b686600019166112ef565b600354909350600160a060020a03808516911614610d9b576040805160e560020a62461bcd02815260206004820152601660248201527f5369676e6174757265206973206e6f742076616c696400000000000000000000604482015290519081900360640190fd5b428611610df2576040805160e560020a62461bcd02815260206004820152601060248201527f4772616e74206973206578706972656400000000000000000000000000000000604482015290519081900360640190fd5b600160a060020a03808816600090815260046020526040902054161515610e63576040805160e560020a62461bcd02815260206004820152601360248201527f5573657220686173206e6f74207374616b652100000000000000000000000000604482015290519081900360640190fd5b5050600160a060020a038086166000908152600460209081526040808320546005909252808320549051919093169291839183156108fc0291849190818181858888f19350505050158015610ebc573d6000803e3d6000fd5b5060408051600160a060020a03808a1682528416602082015280820183905290517ff9960ed1fd0443d41200aefcda41da43b6baace553c725c59ea0938f0f07b7b89181900360600190a150505050505050565b60056020526000908152604090205481565b600054600160a060020a03163314610f3957600080fd5b60028054600160a060020a039092166101000274ffffffffffffffffffffffffffffffffffffffff0019909216919091179055565b610f788282611094565b15156105b757600080fd5b610fed826001836040518082805190602001908083835b60208310610fb95780518252601f199092019160209182019101610f9a565b51815160209384036101000a60001901801990921691161790529201948552506040519384900301909220929150506115bd565b81600160a060020a03167fd211483f91fc6eff862467f8de606587a30c8fc9981056f051b897a418df803a826040518080602001828103825283818151815260200191508051906020019080838360005b8381101561105657818101518382015260200161103e565b50505050905090810190601f1680156110835780820380516001836020036101000a031916815260200191505b509250505060405180910390a25050565b600160a060020a03166000908152602091909152604090205460ff1690565b60006060813682106110c457600080fd5b60606000369050036040519080825280601f01601f1916602001820160405280156110f9578160200160208202803883390190505b509150600090505b81518110156111c8576000368281811061111757fe5b905001357f010000000000000000000000000000000000000000000000000000000000000090047f0100000000000000000000000000000000000000000000000000000000000000027effffffffffffffffffffffffffffffffffffffffffffffffffffffffffffff1916828281518110151561119057fe5b9060200101907effffffffffffffffffffffffffffffffffffffffffffffffffffffffffffff1916908160001a905350600101611101565b6112e63086846040516020018084600160a060020a0316600160a060020a03166c0100000000000000000000000002815260140183600160a060020a0316600160a060020a03166c0100000000000000000000000002815260140182805190602001908083835b6020831061124e5780518252601f19909201916020918201910161122f565b6001836020036101000a03801982511681845116808217855250505050505090500193505050506040516020818303038152906040526040518082805190602001908083835b602083106112b35780518252601f199092019160209182019101611294565b6001836020036101000a0380198251168184511680821785525050505050509050019150506040518091039020856115df565b95945050505050565b604080517f19457468657265756d205369676e6564204d6573736167653a0a333200000000602080830191909152603c80830185905283518084039091018152605c909201928390528151600093918291908401908083835b602083106113675780518252601f199092019160209182019101611348565b5181516020939093036101000a6000190180199091169216919091179052604051920182900390912095945050505050565b600080600080845160411415156113b35760009350611465565b50505060208201516040830151606084015160001a601b60ff821610156113d857601b015b8060ff16601b141580156113f057508060ff16601c14155b156113fe5760009350611465565b60408051600080825260208083018085528a905260ff8516838501526060830187905260808301869052925160019360a0808501949193601f19840193928390039091019190865af1158015611458573d6000803e3d6000fd5b5050506020604051035193505b50505092915050565b6114d8826001836040518082805190602001908083835b602083106114a45780518252601f199092019160209182019101611485565b51815160209384036101000a6000190180199092169116179052920194855250604051938490030190922092915050611626565b81600160a060020a03167fbfec83d64eaa953f2708271a023ab9ee82057f8f3578d548c1a4ba0b5b700489826040518080602001828103825283818151815260200191508051906020019080838360008381101561105657818101518382015260200161103e565b600160a060020a038116151561155557600080fd5b60008054604051600160a060020a03808516939216917f8be0079c531659141344cd1fd0a4f28419497f9722a3daafe3b4186f6b6457e091a36000805473ffffffffffffffffffffffffffffffffffffffff1916600160a060020a0392909216919091179055565b600160a060020a0316600090815260209190915260409020805460ff19169055565b6000806115ef836108b6866112ef565b905061161e8160408051908101604052806007815260200160008051602061164c833981519152815250610617565b949350505050565b600160a060020a0316600090815260209190915260409020805460ff191660011790555600626f756e63657200000000000000000000000000000000000000000000000000a165627a7a72305820a3001d6e4ffe6829a74702f05c086c1b2e76510c31ce2315c5aaa428b244dd460029",
  "source": "pragma solidity ^0.4.24;\n\nimport \"../node_modules/zeppelin-solidity/contracts/lifecycle/Pausable.sol\";\n\nimport \"../node_modules/zeppelin-solidity/contracts/ownership/Ownable.sol\";\nimport \"../node_modules/zeppelin-solidity/contracts/access/SignatureBouncer.sol\";\nimport \"../node_modules/zeppelin-solidity/contracts/math/SafeMath.sol\";\nimport \"../node_modules/zeppelin-solidity/contracts/ECRecovery.sol\";\n\n\ncontract ETHDenverStaking is SignatureBouncer, Pausable {\n  \n    using SafeMath for uint256;\n    using ECRecovery for bytes32;\n\n    event UserStake(address userAddress, address stakedBy, uint amountStaked);\n    event UserRecoupStake(address userAddress, address stakedBy, uint amountStaked);\n\n    // Debug events\n    event debugBytes32(bytes32 _msg);\n    event debugBytes(bytes _msg);\n    event debugString(string _msg);\n    event debugAddress(address _address);\n\n    // signer authorized to allow staking\n    address public authorizedStakeGrantAddress = 0xc1E19BDD3DBBA6c070579083E3B0D4C92fcaE0B3;\n    \n    // signer authorized to allow the recouping staked amount\n    address public authorizedRecoupStakeGrantAddress = 0xc1E19BDD3DBBA6c070579083E3B0D4C92fcaE0B3;\n\n    // Mapping associating the userAddress (uPort address) with the wallet (metamask address) that has staked for him\n    mapping (address => address) public userStakedAddress; \n\n    // Mapping containing the amount staked for a given userAddress (uPort address)\n    mapping (address => uint256) public stakedAmount;\n\n    function setAuthorizedStakeGrantAddress(address _signer) public onlyOwner {\n        authorizedStakeGrantAddress = _signer;\n    }\n\n    function setAuthorizedRecoupStakeGrantAddress(address _signer) public onlyOwner {\n        authorizedRecoupStakeGrantAddress = _signer;\n    }\n\n    // function\n\n    // function allow the staking for a participant\n    function stake(address _userAddress, uint _expiringDate, bytes _signature) public payable {\n        bytes32 hashMessage = keccak256(abi.encodePacked(_userAddress, msg.value, _expiringDate));\n        address signer = hashMessage.toEthSignedMessageHash().recover(_signature);\n        // emit debugAddress(signer);\n        // emit debugAddress(authorizedStakeGrantAddress);\n        \n        require(signer == authorizedStakeGrantAddress, \"Signature is not valid\");\n\n        require(_expiringDate > block.timestamp, \"Grant is expired\");\n\n        // require(userStakedAddress[_userAddress] == 0, \"User has already stake!\");\n\n        stakedAmount[_userAddress] = msg.value;\n        userStakedAddress[_userAddress] = msg.sender;\n\n        emit UserStake(_userAddress, msg.sender, msg.value);\n    }\n\n    function stake2(address _userAddress, uint _expiringDate, bytes _signature) public payable  onlyValidSignatureAndData(_signature) {\n        require(_expiringDate > block.timestamp, \"Grant is expired\");\n        \n        require(userStakedAddress[_userAddress] == 0, \"User has already stake!\");\n\n        stakedAmount[_userAddress] = msg.value;\n        userStakedAddress[_userAddress] = msg.sender;\n\n        emit UserStake(_userAddress, msg.sender, msg.value);\n    }\n    \n\n    // function allow the staking for a participant\n    function recoupStake(address _userAddress, uint _expiringDate, bytes _signature) public {\n        bytes32 hashMessage = keccak256(abi.encodePacked(_userAddress, _expiringDate));\n        address signer = hashMessage.toEthSignedMessageHash().recover(_signature);\n        // emit debugAddress(signer);\n        // emit debugAddress(authorizedStakeGrantAddress);\n        \n        require(signer == authorizedRecoupStakeGrantAddress, \"Signature is not valid\");\n\n        require(_expiringDate > block.timestamp, \"Grant is expired\");\n\n        require(userStakedAddress[_userAddress] != 0, \"User has not stake!\");\n\n        address stakedBy = userStakedAddress[_userAddress];\n        \n        uint256 amount = stakedAmount[_userAddress];\n        \n        stakedBy.transfer(amount);\n\n        emit UserRecoupStake(_userAddress, stakedBy, amount);\n    }\n\n    \n    \n}",
  "sourcePath": "/Users/joaoaguiam/Documents/Joao2017/Dev/taiga-market/ethdenver-staking-contracts/contracts/ETHDenverStaking.sol",
  "compiler": {
    "name": "solc",
    "version": "0.4.24+commit.e67f0147.Emscripten.clang"
  },
  "schemaVersion": "2.0.1",
  "updatedAt": "2018-10-05T22:47:02.496Z"
}