{
  "contractName": "ETHDenverStaking",
  "abi": [
    {
      "constant": false,
      "inputs": [],
      "name": "unpause",
      "outputs": [],
      "payable": false,
      "stateMutability": "nonpayable",
      "type": "function"
    },
    {
      "constant": true,
      "inputs": [],
      "name": "paused",
      "outputs": [
        {
          "name": "",
          "type": "bool"
        }
      ],
      "payable": false,
      "stateMutability": "view",
      "type": "function"
    },
    {
      "constant": false,
      "inputs": [],
      "name": "renounceOwnership",
      "outputs": [],
      "payable": false,
      "stateMutability": "nonpayable",
      "type": "function"
    },
    {
      "constant": false,
      "inputs": [],
      "name": "pause",
      "outputs": [],
      "payable": false,
      "stateMutability": "nonpayable",
      "type": "function"
    },
    {
      "constant": true,
      "inputs": [],
      "name": "authorizedStakeGrantAddress",
      "outputs": [
        {
          "name": "",
          "type": "address"
        }
      ],
      "payable": false,
      "stateMutability": "view",
      "type": "function"
    },
    {
      "constant": true,
      "inputs": [],
      "name": "owner",
      "outputs": [
        {
          "name": "",
          "type": "address"
        }
      ],
      "payable": false,
      "stateMutability": "view",
      "type": "function"
    },
    {
      "constant": true,
      "inputs": [
        {
          "name": "",
          "type": "address"
        }
      ],
      "name": "userStakedAddress",
      "outputs": [
        {
          "name": "",
          "type": "address"
        }
      ],
      "payable": false,
      "stateMutability": "view",
      "type": "function"
    },
    {
      "constant": true,
      "inputs": [],
      "name": "authorizedRecoupStakeGrantAddress",
      "outputs": [
        {
          "name": "",
          "type": "address"
        }
      ],
      "payable": false,
      "stateMutability": "view",
      "type": "function"
    },
    {
      "constant": false,
      "inputs": [
        {
          "name": "_newOwner",
          "type": "address"
        }
      ],
      "name": "transferOwnership",
      "outputs": [],
      "payable": false,
      "stateMutability": "nonpayable",
      "type": "function"
    },
    {
      "constant": true,
      "inputs": [
        {
          "name": "",
          "type": "address"
        }
      ],
      "name": "stakedAmount",
      "outputs": [
        {
          "name": "",
          "type": "uint256"
        }
      ],
      "payable": false,
      "stateMutability": "view",
      "type": "function"
    },
    {
      "anonymous": false,
      "inputs": [
        {
          "indexed": false,
          "name": "userAddress",
          "type": "address"
        },
        {
          "indexed": false,
          "name": "stakedBy",
          "type": "address"
        },
        {
          "indexed": false,
          "name": "amountStaked",
          "type": "uint256"
        }
      ],
      "name": "UserStake",
      "type": "event"
    },
    {
      "anonymous": false,
      "inputs": [
        {
          "indexed": false,
          "name": "_msg",
          "type": "bytes32"
        }
      ],
      "name": "debugBytes32",
      "type": "event"
    },
    {
      "anonymous": false,
      "inputs": [
        {
          "indexed": false,
          "name": "_msg",
          "type": "bytes"
        }
      ],
      "name": "debugBytes",
      "type": "event"
    },
    {
      "anonymous": false,
      "inputs": [
        {
          "indexed": false,
          "name": "_msg",
          "type": "string"
        }
      ],
      "name": "debugString",
      "type": "event"
    },
    {
      "anonymous": false,
      "inputs": [
        {
          "indexed": false,
          "name": "_address",
          "type": "address"
        }
      ],
      "name": "debugAddress",
      "type": "event"
    },
    {
      "anonymous": false,
      "inputs": [],
      "name": "Pause",
      "type": "event"
    },
    {
      "anonymous": false,
      "inputs": [],
      "name": "Unpause",
      "type": "event"
    },
    {
      "anonymous": false,
      "inputs": [
        {
          "indexed": true,
          "name": "previousOwner",
          "type": "address"
        }
      ],
      "name": "OwnershipRenounced",
      "type": "event"
    },
    {
      "anonymous": false,
      "inputs": [
        {
          "indexed": true,
          "name": "previousOwner",
          "type": "address"
        },
        {
          "indexed": true,
          "name": "newOwner",
          "type": "address"
        }
      ],
      "name": "OwnershipTransferred",
      "type": "event"
    },
    {
      "constant": false,
      "inputs": [
        {
          "name": "_signer",
          "type": "address"
        }
      ],
      "name": "setAuthorizedStakeGrantAddress",
      "outputs": [],
      "payable": false,
      "stateMutability": "nonpayable",
      "type": "function"
    },
    {
      "constant": false,
      "inputs": [
        {
          "name": "_signer",
          "type": "address"
        }
      ],
      "name": "setAuthorizedRecoupStakeGrantAddress",
      "outputs": [],
      "payable": false,
      "stateMutability": "nonpayable",
      "type": "function"
    },
    {
      "constant": false,
      "inputs": [
        {
          "name": "_userAddress",
          "type": "address"
        },
        {
          "name": "_expiringDate",
          "type": "uint256"
        },
        {
          "name": "_signature",
          "type": "bytes"
        }
      ],
      "name": "stake",
      "outputs": [],
      "payable": true,
      "stateMutability": "payable",
      "type": "function"
    }
  ],
  "bytecode": "0x60806040526000805460018054600160a060020a031990811673c1e19bdd3dbba6c070579083e3b0d4c92fcae0b3908117909255600280549091169091179055600160a860020a03191633179055610ad08061005c6000396000f3006080604052600436106100c45763ffffffff7c01000000000000000000000000000000000000000000000000000000006000350416633e12170f81146100c95780633f4ba83a14610127578063576dc5721461013c5780635c975abb1461015d578063715018a6146101865780638456cb591461019b5780638bc1ec25146101b05780638da5cb5b146101e1578063b8d65042146101f6578063f01fc94914610217578063f2fde38b1461022c578063f99318551461024d578063fd1a7cd714610280575b600080fd5b604080516020600460443581810135601f8101849004840285018401909552848452610125948235600160a060020a03169460248035953695946064949201919081908401838280828437509497506102a19650505050505050565b005b34801561013357600080fd5b506101256105ee565b34801561014857600080fd5b50610125600160a060020a0360043516610675565b34801561016957600080fd5b506101726106bb565b604080519115158252519081900360200190f35b34801561019257600080fd5b506101256106dc565b3480156101a757600080fd5b50610125610748565b3480156101bc57600080fd5b506101c56107e5565b60408051600160a060020a039092168252519081900360200190f35b3480156101ed57600080fd5b506101c56107f4565b34801561020257600080fd5b506101c5600160a060020a0360043516610803565b34801561022357600080fd5b506101c561081e565b34801561023857600080fd5b50610125600160a060020a036004351661082d565b34801561025957600080fd5b5061026e600160a060020a0360043516610850565b60408051918252519081900360200190f35b34801561028c57600080fd5b50610125600160a060020a0360043516610862565b6000808434856040516020018084600160a060020a0316600160a060020a03166c0100000000000000000000000002815260140183815260200182815260200193505050506040516020818303038152906040526040518082805190602001908083835b602083106103245780518252601f199092019160209182019101610305565b6001836020036101000a038019825116818451168082178552505050505050905001915050604051809103902091506103708361036484600019166108a8565b9063ffffffff61095216565b60408051600160a060020a038316815290519192507f21a484c4857160baa6506f7f45947f51fdcb98f63c8267dbcba736def6cc888d919081900360200190a160015460408051600160a060020a039092168252517f21a484c4857160baa6506f7f45947f51fdcb98f63c8267dbcba736def6cc888d9181900360200190a1600154600160a060020a0382811691161461046b57604080517f08c379a000000000000000000000000000000000000000000000000000000000815260206004820152601660248201527f5369676e6174757265206973206e6f742076616c696400000000000000000000604482015290519081900360640190fd5b4284116104d957604080517f08c379a000000000000000000000000000000000000000000000000000000000815260206004820152601060248201527f4772616e74206973206578706972656400000000000000000000000000000000604482015290519081900360640190fd5b600160a060020a0380861660009081526003602052604090205416151561056157604080517f08c379a000000000000000000000000000000000000000000000000000000000815260206004820152601760248201527f557365722068617320616c7265616479207374616b6521000000000000000000604482015290519081900360640190fd5b600160a060020a038516600081815260046020908152604080832034908190556003835292819020805473ffffffffffffffffffffffffffffffffffffffff19163390811790915581519485529184019190915282810191909152517f3e11a7cacbb7ece302eb29576a224b92ab22a9b581a2c69db73bc14510c3e0c39181900360600190a15050505050565b600054600160a060020a0316331461060557600080fd5b60005474010000000000000000000000000000000000000000900460ff16151561062e57600080fd5b6000805474ff0000000000000000000000000000000000000000191681556040517f7805862f689e2f13df9f062ff482ad3ad112aca9e0847911ed832e158c525b339190a1565b600054600160a060020a0316331461068c57600080fd5b6002805473ffffffffffffffffffffffffffffffffffffffff1916600160a060020a0392909216919091179055565b60005474010000000000000000000000000000000000000000900460ff1681565b600054600160a060020a031633146106f357600080fd5b60008054604051600160a060020a03909116917ff8df31144d9c2f0f6b59d69b8b98abd5459d07f2742c4df920b25aae33c6482091a26000805473ffffffffffffffffffffffffffffffffffffffff19169055565b600054600160a060020a0316331461075f57600080fd5b60005474010000000000000000000000000000000000000000900460ff161561078757600080fd5b6000805474ff00000000000000000000000000000000000000001916740100000000000000000000000000000000000000001781556040517f6985a02210a168e66602d3235cb6db0e70f92b3ba4d376a33c0f3d9434bff6259190a1565b600154600160a060020a031681565b600054600160a060020a031681565b600360205260009081526040902054600160a060020a031681565b600254600160a060020a031681565b600054600160a060020a0316331461084457600080fd5b61084d81610a27565b50565b60046020526000908152604090205481565b600054600160a060020a0316331461087957600080fd5b6001805473ffffffffffffffffffffffffffffffffffffffff1916600160a060020a0392909216919091179055565b604080517f19457468657265756d205369676e6564204d6573736167653a0a333200000000602080830191909152603c80830185905283518084039091018152605c909201928390528151600093918291908401908083835b602083106109205780518252601f199092019160209182019101610901565b5181516020939093036101000a6000190180199091169216919091179052604051920182900390912095945050505050565b6000806000808451604114151561096c5760009350610a1e565b50505060208201516040830151606084015160001a601b60ff8216101561099157601b015b8060ff16601b141580156109a957508060ff16601c14155b156109b75760009350610a1e565b60408051600080825260208083018085528a905260ff8516838501526060830187905260808301869052925160019360a0808501949193601f19840193928390039091019190865af1158015610a11573d6000803e3d6000fd5b5050506020604051035193505b50505092915050565b600160a060020a0381161515610a3c57600080fd5b60008054604051600160a060020a03808516939216917f8be0079c531659141344cd1fd0a4f28419497f9722a3daafe3b4186f6b6457e091a36000805473ffffffffffffffffffffffffffffffffffffffff1916600160a060020a03929092169190911790555600a165627a7a723058201a7bebbc91ef33e64c36118af38e4a2389774718bfb6ba9e34c2218d66037ae70029",
  "source": "pragma solidity ^0.4.24;\n\nimport \"../node_modules/zeppelin-solidity/contracts/lifecycle/Pausable.sol\";\n\nimport \"../node_modules/zeppelin-solidity/contracts/ownership/Ownable.sol\";\nimport \"../node_modules/zeppelin-solidity/contracts/math/SafeMath.sol\";\nimport \"../node_modules/zeppelin-solidity/contracts/ECRecovery.sol\";\n\n\ncontract ETHDenverStaking is Ownable, Pausable {\n  \n    using SafeMath for uint256;\n    using ECRecovery for bytes32;\n\n    event UserStake(address userAddress, address stakedBy, uint amountStaked);\n\n    // Debug events\n    event debugBytes32(bytes32 _msg);\n    event debugBytes(bytes _msg);\n    event debugString(string _msg);\n    event debugAddress(address _address);\n\n    // signer authorized to allow staking\n    address public authorizedStakeGrantAddress = 0xc1E19BDD3DBBA6c070579083E3B0D4C92fcaE0B3;\n    \n    // signer authorized to allow the recouping staked amount\n    address public authorizedRecoupStakeGrantAddress = 0xc1E19BDD3DBBA6c070579083E3B0D4C92fcaE0B3;\n\n    // Mapping associating the userAddress (uPort address) with the wallet (metamask address) that has staked for him\n    mapping (address => address) public userStakedAddress; \n\n    // Mapping containing the amount staked for a given userAddress (uPort address)\n    mapping (address => uint) public stakedAmount;\n\n\n    function setAuthorizedStakeGrantAddress(address _signer) public onlyOwner {\n        authorizedStakeGrantAddress = _signer;\n    }\n\n    function setAuthorizedRecoupStakeGrantAddress(address _signer) public onlyOwner {\n        authorizedRecoupStakeGrantAddress = _signer;\n    }\n\n    // function allow the staking for a participant\n    function stake(address _userAddress, uint _expiringDate, bytes _signature) public payable {\n        bytes32 hashMessage = keccak256(abi.encodePacked(_userAddress, msg.value, _expiringDate));\n        address signer = hashMessage.toEthSignedMessageHash().recover(_signature);\n        emit debugAddress(signer);\n        emit debugAddress(authorizedStakeGrantAddress);\n        \n        require(signer == authorizedStakeGrantAddress, \"Signature is not valid\");\n\n        require(_expiringDate > block.timestamp, \"Grant is expired\");\n\n        require(userStakedAddress[_userAddress] != 0, \"User has already stake!\");\n\n        stakedAmount[_userAddress] = msg.value;\n        userStakedAddress[_userAddress] = msg.sender;\n\n        emit UserStake(_userAddress, msg.sender, msg.value);\n    }\n    \n}",
  "sourcePath": "/Users/joaoaguiam/Documents/Joao2017/Dev/taiga-market/ethdenver-staking-contracts/contracts/ETHDenverStaking.sol",
  "compiler": {
    "name": "solc",
    "version": "0.4.24+commit.e67f0147.Emscripten.clang"
  },
  "schemaVersion": "2.0.1",
  "updatedAt": "2018-09-21T06:46:55.428Z"
}