{
  "contractName": "ETHDenverStaking",
  "abi": [
    {
      "constant": false,
      "inputs": [],
      "name": "unpause",
      "outputs": [],
      "payable": false,
      "stateMutability": "nonpayable",
      "type": "function"
    },
    {
      "constant": true,
      "inputs": [],
      "name": "paused",
      "outputs": [
        {
          "name": "",
          "type": "bool"
        }
      ],
      "payable": false,
      "stateMutability": "view",
      "type": "function"
    },
    {
      "constant": false,
      "inputs": [],
      "name": "renounceOwnership",
      "outputs": [],
      "payable": false,
      "stateMutability": "nonpayable",
      "type": "function"
    },
    {
      "constant": false,
      "inputs": [],
      "name": "pause",
      "outputs": [],
      "payable": false,
      "stateMutability": "nonpayable",
      "type": "function"
    },
    {
      "constant": true,
      "inputs": [],
      "name": "owner",
      "outputs": [
        {
          "name": "",
          "type": "address"
        }
      ],
      "payable": false,
      "stateMutability": "view",
      "type": "function"
    },
    {
      "constant": false,
      "inputs": [
        {
          "name": "_newOwner",
          "type": "address"
        }
      ],
      "name": "transferOwnership",
      "outputs": [],
      "payable": false,
      "stateMutability": "nonpayable",
      "type": "function"
    },
    {
      "anonymous": false,
      "inputs": [
        {
          "indexed": false,
          "name": "userAddress",
          "type": "address"
        },
        {
          "indexed": false,
          "name": "stakedBy",
          "type": "address"
        },
        {
          "indexed": false,
          "name": "amountStaked",
          "type": "uint256"
        }
      ],
      "name": "UserStake",
      "type": "event"
    },
    {
      "anonymous": false,
      "inputs": [
        {
          "indexed": false,
          "name": "_msg",
          "type": "bytes32"
        }
      ],
      "name": "debug",
      "type": "event"
    },
    {
      "anonymous": false,
      "inputs": [
        {
          "indexed": false,
          "name": "_msg",
          "type": "address"
        }
      ],
      "name": "debugAddress",
      "type": "event"
    },
    {
      "anonymous": false,
      "inputs": [],
      "name": "Pause",
      "type": "event"
    },
    {
      "anonymous": false,
      "inputs": [],
      "name": "Unpause",
      "type": "event"
    },
    {
      "anonymous": false,
      "inputs": [
        {
          "indexed": true,
          "name": "previousOwner",
          "type": "address"
        }
      ],
      "name": "OwnershipRenounced",
      "type": "event"
    },
    {
      "anonymous": false,
      "inputs": [
        {
          "indexed": true,
          "name": "previousOwner",
          "type": "address"
        },
        {
          "indexed": true,
          "name": "newOwner",
          "type": "address"
        }
      ],
      "name": "OwnershipTransferred",
      "type": "event"
    },
    {
      "constant": false,
      "inputs": [
        {
          "name": "_userAddress",
          "type": "address"
        },
        {
          "name": "_stakedBy",
          "type": "address"
        },
        {
          "name": "_amountStaked",
          "type": "uint256"
        }
      ],
      "name": "testEvent",
      "outputs": [],
      "payable": false,
      "stateMutability": "nonpayable",
      "type": "function"
    },
    {
      "constant": false,
      "inputs": [
        {
          "name": "_userAddress",
          "type": "address"
        },
        {
          "name": "_expiringDate",
          "type": "uint256"
        },
        {
          "name": "_signature",
          "type": "bytes"
        }
      ],
      "name": "stake",
      "outputs": [],
      "payable": true,
      "stateMutability": "payable",
      "type": "function"
    }
  ],
  "bytecode": "0x60806040526000805460018054600160a060020a03191673c1e19bdd3dbba6c070579083e3b0d4c92fcae0b3179055600160a860020a0319163317905561075c8061004b6000396000f30060806040526004361061008d5763ffffffff7c01000000000000000000000000000000000000000000000000000000006000350416633e12170f81146100925780633f4ba83a146100f05780635c975abb14610105578063715018a61461012e5780638456cb59146101435780638da5cb5b14610158578063a6518a1314610189578063f2fde38b146101b3575b600080fd5b604080516020600460443581810135601f81018490048402850184019095528484526100ee948235600160a060020a03169460248035953695946064949201919081908401838280828437509497506101d49650505050505050565b005b3480156100fc57600080fd5b506100ee610302565b34801561011157600080fd5b5061011a610389565b604080519115158252519081900360200190f35b34801561013a57600080fd5b506100ee6103aa565b34801561014f57600080fd5b506100ee610416565b34801561016457600080fd5b5061016d6104b3565b60408051600160a060020a039092168252519081900360200190f35b34801561019557600080fd5b506100ee600160a060020a03600435811690602435166044356104c2565b3480156101bf57600080fd5b506100ee600160a060020a0360043516610511565b600080846040516020018082600160a060020a0316600160a060020a03166c010000000000000000000000000281526014019150506040516020818303038152906040526040518082805190602001908083835b602083106102475780518252601f199092019160209182019101610228565b51815160209384036101000a60001901801990921691161790526040805192909401829003822080835293519397507f9bb4050ede07f453a7dacdff9c8bc4defc8410eda75069d79ccbbec83e2f21ad95509083900301925050a16102bb836102af84610534565b9063ffffffff6105de16565b60408051600160a060020a038316815290519192507f21a484c4857160baa6506f7f45947f51fdcb98f63c8267dbcba736def6cc888d919081900360200190a15050505050565b600054600160a060020a0316331461031957600080fd5b60005474010000000000000000000000000000000000000000900460ff16151561034257600080fd5b6000805474ff0000000000000000000000000000000000000000191681556040517f7805862f689e2f13df9f062ff482ad3ad112aca9e0847911ed832e158c525b339190a1565b60005474010000000000000000000000000000000000000000900460ff1681565b600054600160a060020a031633146103c157600080fd5b60008054604051600160a060020a03909116917ff8df31144d9c2f0f6b59d69b8b98abd5459d07f2742c4df920b25aae33c6482091a26000805473ffffffffffffffffffffffffffffffffffffffff19169055565b600054600160a060020a0316331461042d57600080fd5b60005474010000000000000000000000000000000000000000900460ff161561045557600080fd5b6000805474ff00000000000000000000000000000000000000001916740100000000000000000000000000000000000000001781556040517f6985a02210a168e66602d3235cb6db0e70f92b3ba4d376a33c0f3d9434bff6259190a1565b600054600160a060020a031681565b60408051600160a060020a0380861682528416602082015280820183905290517f3e11a7cacbb7ece302eb29576a224b92ab22a9b581a2c69db73bc14510c3e0c39181900360600190a1505050565b600054600160a060020a0316331461052857600080fd5b610531816106b3565b50565b604080517f19457468657265756d205369676e6564204d6573736167653a0a333200000000602080830191909152603c80830185905283518084039091018152605c909201928390528151600093918291908401908083835b602083106105ac5780518252601f19909201916020918201910161058d565b5181516020939093036101000a6000190180199091169216919091179052604051920182900390912095945050505050565b600080600080845160411415156105f857600093506106aa565b50505060208201516040830151606084015160001a601b60ff8216101561061d57601b015b8060ff16601b1415801561063557508060ff16601c14155b1561064357600093506106aa565b60408051600080825260208083018085528a905260ff8516838501526060830187905260808301869052925160019360a0808501949193601f19840193928390039091019190865af115801561069d573d6000803e3d6000fd5b5050506020604051035193505b50505092915050565b600160a060020a03811615156106c857600080fd5b60008054604051600160a060020a03808516939216917f8be0079c531659141344cd1fd0a4f28419497f9722a3daafe3b4186f6b6457e091a36000805473ffffffffffffffffffffffffffffffffffffffff1916600160a060020a03929092169190911790555600a165627a7a723058208bb17226d899b92446e2b405cb95a463f3434b824423438d5c5129ce14b612990029",
  "source": "pragma solidity ^0.4.24;\n\nimport \"../node_modules/zeppelin-solidity/contracts/lifecycle/Pausable.sol\";\n\nimport \"../node_modules/zeppelin-solidity/contracts/ownership/Ownable.sol\";\nimport \"../node_modules/zeppelin-solidity/contracts/math/SafeMath.sol\";\nimport \"../node_modules/zeppelin-solidity/contracts/ECRecovery.sol\";\n\n\ncontract ETHDenverStaking is Ownable, Pausable {\n  \n    using SafeMath for uint256;\n    using ECRecovery for bytes32;\n\n    event UserStake(address userAddress, address stakedBy, uint amountStaked);\n    event debug(bytes32 _msg);\n    event debugAddress(address _msg);\n\n    address authorizedStakeGrantAddress = 0xc1E19BDD3DBBA6c070579083E3B0D4C92fcaE0B3;\n\n    mapping (address => uint) stakedBalances;\n\n    function testEvent(address _userAddress, address _stakedBy, uint _amountStaked) public {\n        emit UserStake(_userAddress, _stakedBy, _amountStaked);\n    }\n\n\n    function stake(address _userAddress, uint _expiringDate, bytes _signature) public payable {\n        bytes32 hashMessage = keccak256(abi.encodePacked(_userAddress));\n        emit debug(hashMessage);\n        address signer = hashMessage.toEthSignedMessageHash().recover(_signature);\n        emit debugAddress(signer);\n\n        // require(signer == authorizedStakeGrantAddress, \"Signer is not autorized\");\n    }\n    \n}",
  "sourcePath": "/Users/joaoaguiam/Documents/Joao2017/Dev/taiga-market/ethdenver-staking-contracts/contracts/ETHDenverStaking.sol",
  "compiler": {
    "name": "solc",
    "version": "0.4.24+commit.e67f0147.Emscripten.clang"
  },
  "schemaVersion": "2.0.1",
  "updatedAt": "2018-09-21T04:54:52.168Z"
}