{
  "contractName": "ETHDenverStaking",
  "abi": [
    {
      "constant": false,
      "inputs": [],
      "name": "unpause",
      "outputs": [],
      "payable": false,
      "stateMutability": "nonpayable",
      "type": "function"
    },
    {
      "constant": true,
      "inputs": [],
      "name": "paused",
      "outputs": [
        {
          "name": "",
          "type": "bool"
        }
      ],
      "payable": false,
      "stateMutability": "view",
      "type": "function"
    },
    {
      "constant": false,
      "inputs": [],
      "name": "renounceOwnership",
      "outputs": [],
      "payable": false,
      "stateMutability": "nonpayable",
      "type": "function"
    },
    {
      "constant": false,
      "inputs": [],
      "name": "pause",
      "outputs": [],
      "payable": false,
      "stateMutability": "nonpayable",
      "type": "function"
    },
    {
      "constant": true,
      "inputs": [],
      "name": "owner",
      "outputs": [
        {
          "name": "",
          "type": "address"
        }
      ],
      "payable": false,
      "stateMutability": "view",
      "type": "function"
    },
    {
      "constant": true,
      "inputs": [
        {
          "name": "",
          "type": "address"
        }
      ],
      "name": "userStakedAddress",
      "outputs": [
        {
          "name": "",
          "type": "address"
        }
      ],
      "payable": false,
      "stateMutability": "view",
      "type": "function"
    },
    {
      "constant": false,
      "inputs": [
        {
          "name": "_newOwner",
          "type": "address"
        }
      ],
      "name": "transferOwnership",
      "outputs": [],
      "payable": false,
      "stateMutability": "nonpayable",
      "type": "function"
    },
    {
      "constant": true,
      "inputs": [],
      "name": "finishDate",
      "outputs": [
        {
          "name": "",
          "type": "uint256"
        }
      ],
      "payable": false,
      "stateMutability": "view",
      "type": "function"
    },
    {
      "constant": true,
      "inputs": [],
      "name": "grantSigner",
      "outputs": [
        {
          "name": "",
          "type": "address"
        }
      ],
      "payable": false,
      "stateMutability": "view",
      "type": "function"
    },
    {
      "constant": true,
      "inputs": [
        {
          "name": "",
          "type": "address"
        }
      ],
      "name": "stakedAmount",
      "outputs": [
        {
          "name": "",
          "type": "uint256"
        }
      ],
      "payable": false,
      "stateMutability": "view",
      "type": "function"
    },
    {
      "inputs": [
        {
          "name": "_grantSigner",
          "type": "address"
        },
        {
          "name": "_finishDate",
          "type": "uint256"
        }
      ],
      "payable": false,
      "stateMutability": "nonpayable",
      "type": "constructor"
    },
    {
      "anonymous": false,
      "inputs": [
        {
          "indexed": false,
          "name": "userUportAddress",
          "type": "address"
        },
        {
          "indexed": false,
          "name": "userMetamaskAddress",
          "type": "address"
        },
        {
          "indexed": false,
          "name": "amountStaked",
          "type": "uint256"
        }
      ],
      "name": "UserStake",
      "type": "event"
    },
    {
      "anonymous": false,
      "inputs": [
        {
          "indexed": false,
          "name": "userUportAddress",
          "type": "address"
        },
        {
          "indexed": false,
          "name": "userMetamaskAddress",
          "type": "address"
        },
        {
          "indexed": false,
          "name": "amountStaked",
          "type": "uint256"
        }
      ],
      "name": "UserRecoupStake",
      "type": "event"
    },
    {
      "anonymous": false,
      "inputs": [
        {
          "indexed": false,
          "name": "_msg",
          "type": "bytes32"
        }
      ],
      "name": "debugBytes32",
      "type": "event"
    },
    {
      "anonymous": false,
      "inputs": [
        {
          "indexed": false,
          "name": "_msg",
          "type": "bytes"
        }
      ],
      "name": "debugBytes",
      "type": "event"
    },
    {
      "anonymous": false,
      "inputs": [
        {
          "indexed": false,
          "name": "_msg",
          "type": "string"
        }
      ],
      "name": "debugString",
      "type": "event"
    },
    {
      "anonymous": false,
      "inputs": [
        {
          "indexed": false,
          "name": "_address",
          "type": "address"
        }
      ],
      "name": "debugAddress",
      "type": "event"
    },
    {
      "anonymous": false,
      "inputs": [],
      "name": "Pause",
      "type": "event"
    },
    {
      "anonymous": false,
      "inputs": [],
      "name": "Unpause",
      "type": "event"
    },
    {
      "anonymous": false,
      "inputs": [
        {
          "indexed": true,
          "name": "previousOwner",
          "type": "address"
        }
      ],
      "name": "OwnershipRenounced",
      "type": "event"
    },
    {
      "anonymous": false,
      "inputs": [
        {
          "indexed": true,
          "name": "previousOwner",
          "type": "address"
        },
        {
          "indexed": true,
          "name": "newOwner",
          "type": "address"
        }
      ],
      "name": "OwnershipTransferred",
      "type": "event"
    },
    {
      "constant": false,
      "inputs": [
        {
          "name": "_userUportAddress",
          "type": "address"
        },
        {
          "name": "_expiryDate",
          "type": "uint256"
        },
        {
          "name": "_signature",
          "type": "bytes"
        }
      ],
      "name": "stake",
      "outputs": [],
      "payable": true,
      "stateMutability": "payable",
      "type": "function"
    },
    {
      "constant": false,
      "inputs": [
        {
          "name": "_userUportAddress",
          "type": "address"
        },
        {
          "name": "_expiryDate",
          "type": "uint256"
        },
        {
          "name": "_signature",
          "type": "bytes"
        }
      ],
      "name": "recoupStake",
      "outputs": [],
      "payable": false,
      "stateMutability": "nonpayable",
      "type": "function"
    },
    {
      "constant": false,
      "inputs": [
        {
          "name": "_signer",
          "type": "address"
        }
      ],
      "name": "setGrantSigner",
      "outputs": [],
      "payable": false,
      "stateMutability": "nonpayable",
      "type": "function"
    },
    {
      "constant": false,
      "inputs": [],
      "name": "sweepStakes",
      "outputs": [],
      "payable": false,
      "stateMutability": "nonpayable",
      "type": "function"
    }
  ],
  "bytecode": "0x60806040526000805460a060020a60ff021916905534801561002057600080fd5b50604051604080610e4983398101604052805160209091015160008054600160a060020a0319908116331790915560018054600160a060020a039094169390911692909217909155600255610dcf8061007a6000396000f3006080604052600436106100cf5763ffffffff7c01000000000000000000000000000000000000000000000000000000006000350416633e12170f81146100d45780633f4ba83a146101325780634bf34f25146101475780635c975abb14610168578063715018a6146101915780638456cb59146101a65780638da5cb5b146101bb578063971750a8146101ec578063b8d6504214610201578063f2fde38b14610222578063f400a3d714610243578063f5a15f6d1461026a578063f7c37ccd146102d3578063f9931855146102e8575b600080fd5b604080516020600460443581810135601f8101849004840285018401909552848452610130948235600160a060020a03169460248035953695946064949201919081908401838280828437509497506103099650505050505050565b005b34801561013e57600080fd5b50610130610591565b34801561015357600080fd5b50610130600160a060020a0360043516610618565b34801561017457600080fd5b5061017d6106be565b604080519115158252519081900360200190f35b34801561019d57600080fd5b506101306106df565b3480156101b257600080fd5b5061013061074b565b3480156101c757600080fd5b506101d06107e8565b60408051600160a060020a039092168252519081900360200190f35b3480156101f857600080fd5b506101306107f7565b34801561020d57600080fd5b506101d0600160a060020a03600435166108a5565b34801561022e57600080fd5b50610130600160a060020a03600435166108c0565b34801561024f57600080fd5b506102586108e0565b60408051918252519081900360200190f35b34801561027657600080fd5b50604080516020600460443581810135601f8101849004840285018401909552848452610130948235600160a060020a03169460248035953695946064949201919081908401838280828437509497506108e69650505050505050565b3480156102df57600080fd5b506101d0610b86565b3480156102f457600080fd5b50610258600160a060020a0360043516610b95565b6000808434856040516020018084600160a060020a0316600160a060020a03166c0100000000000000000000000002815260140183815260200182815260200193505050506040516020818303038152906040526040518082805190602001908083835b6020831061038c5780518252601f19909201916020918201910161036d565b6001836020036101000a038019825116818451168082178552505050505050905001915050604051809103902091506103d8836103cc8460001916610ba7565b9063ffffffff610c5116565b600154909150600160a060020a03808316911614610440576040805160e560020a62461bcd02815260206004820152601660248201527f5369676e6174757265206973206e6f742076616c696400000000000000000000604482015290519081900360640190fd5b428411610497576040805160e560020a62461bcd02815260206004820152601060248201527f4772616e74206973206578706972656400000000000000000000000000000000604482015290519081900360640190fd5b600160a060020a038086166000908152600360205260409020541615610507576040805160e560020a62461bcd02815260206004820152601860248201527f557365722068617320616c7265616479207374616b6564210000000000000000604482015290519081900360640190fd5b600160a060020a0385166000818152600360209081526040808320805473ffffffffffffffffffffffffffffffffffffffff1916339081179091556004835292819020349081905581519485529184019290925282820152517f3e11a7cacbb7ece302eb29576a224b92ab22a9b581a2c69db73bc14510c3e0c39181900360600190a15050505050565b600054600160a060020a031633146105a857600080fd5b60005474010000000000000000000000000000000000000000900460ff1615156105d157600080fd5b6000805474ff0000000000000000000000000000000000000000191681556040517f7805862f689e2f13df9f062ff482ad3ad112aca9e0847911ed832e158c525b339190a1565b600054600160a060020a0316331461062f57600080fd5b600160a060020a038116151561068f576040805160e560020a62461bcd02815260206004820152600f60248201527f61646472657373206973206e756c6c0000000000000000000000000000000000604482015290519081900360640190fd5b6001805473ffffffffffffffffffffffffffffffffffffffff1916600160a060020a0392909216919091179055565b60005474010000000000000000000000000000000000000000900460ff1681565b600054600160a060020a031633146106f657600080fd5b60008054604051600160a060020a03909116917ff8df31144d9c2f0f6b59d69b8b98abd5459d07f2742c4df920b25aae33c6482091a26000805473ffffffffffffffffffffffffffffffffffffffff19169055565b600054600160a060020a0316331461076257600080fd5b60005474010000000000000000000000000000000000000000900460ff161561078a57600080fd5b6000805474ff00000000000000000000000000000000000000001916740100000000000000000000000000000000000000001781556040517f6985a02210a168e66602d3235cb6db0e70f92b3ba4d376a33c0f3d9434bff6259190a1565b600054600160a060020a031681565b600054600160a060020a0316331461080e57600080fd5b6002544211610867576040805160e560020a62461bcd02815260206004820152601a60248201527f45746844656e766572206973206e6f74206f7665722079657421000000000000604482015290519081900360640190fd5b60008054604051600160a060020a0390911691303180156108fc02929091818181858888f193505050501580156108a2573d6000803e3d6000fd5b50565b600360205260009081526040902054600160a060020a031681565b600054600160a060020a031633146108d757600080fd5b6108a281610d26565b60025481565b60008060008086866040516020018083600160a060020a0316600160a060020a03166c01000000000000000000000000028152601401828152602001925050506040516020818303038152906040526040518082805190602001908083835b602083106109645780518252601f199092019160209182019101610945565b6001836020036101000a038019825116818451168082178552505050505050905001915050604051809103902093506109a4856103cc8660001916610ba7565b600154909350600160a060020a03808516911614610a0c576040805160e560020a62461bcd02815260206004820152601660248201527f5369676e6174757265206973206e6f742076616c696400000000000000000000604482015290519081900360640190fd5b428611610a63576040805160e560020a62461bcd02815260206004820152601060248201527f4772616e74206973206578706972656400000000000000000000000000000000604482015290519081900360640190fd5b600160a060020a03808816600090815260036020526040902054161515610ad4576040805160e560020a62461bcd02815260206004820152601460248201527f5573657220686173206e6f74207374616b656421000000000000000000000000604482015290519081900360640190fd5b5050600160a060020a0380861660009081526003602090815260408083205460049092528083208054908490559051919093169291839183156108fc0291849190818181858888f19350505050158015610b32573d6000803e3d6000fd5b5060408051600160a060020a03808a1682528416602082015280820183905290517ff9960ed1fd0443d41200aefcda41da43b6baace553c725c59ea0938f0f07b7b89181900360600190a150505050505050565b600154600160a060020a031681565b60046020526000908152604090205481565b604080517f19457468657265756d205369676e6564204d6573736167653a0a333200000000602080830191909152603c80830185905283518084039091018152605c909201928390528151600093918291908401908083835b60208310610c1f5780518252601f199092019160209182019101610c00565b5181516020939093036101000a6000190180199091169216919091179052604051920182900390912095945050505050565b60008060008084516041141515610c6b5760009350610d1d565b50505060208201516040830151606084015160001a601b60ff82161015610c9057601b015b8060ff16601b14158015610ca857508060ff16601c14155b15610cb65760009350610d1d565b60408051600080825260208083018085528a905260ff8516838501526060830187905260808301869052925160019360a0808501949193601f19840193928390039091019190865af1158015610d10573d6000803e3d6000fd5b5050506020604051035193505b50505092915050565b600160a060020a0381161515610d3b57600080fd5b60008054604051600160a060020a03808516939216917f8be0079c531659141344cd1fd0a4f28419497f9722a3daafe3b4186f6b6457e091a36000805473ffffffffffffffffffffffffffffffffffffffff1916600160a060020a03929092169190911790555600a165627a7a7230582003084523ff1943703798499668b98ae27da100ab6a0d3b8081c77c772c74a0d90029",
  "source": "pragma solidity ^0.4.24;\n\nimport \"../node_modules/zeppelin-solidity/contracts/lifecycle/Pausable.sol\";\n\nimport \"../node_modules/zeppelin-solidity/contracts/ownership/Ownable.sol\";\nimport \"../node_modules/zeppelin-solidity/contracts/math/SafeMath.sol\";\nimport \"../node_modules/zeppelin-solidity/contracts/ECRecovery.sol\";\n\n\ncontract ETHDenverStaking is Ownable, Pausable {\n\n    using SafeMath for uint256;\n    using ECRecovery for bytes32;\n\n    event UserStake(address userUportAddress, address userMetamaskAddress, uint amountStaked);\n    event UserRecoupStake(address userUportAddress, address userMetamaskAddress, uint amountStaked);\n\n    // Debug events\n    event debugBytes32(bytes32 _msg);\n    event debugBytes(bytes _msg);\n    event debugString(string _msg);\n    event debugAddress(address _address);\n\n    // ETHDenver will need to authorize staking and recouping.\n    address public grantSigner;\n\n    // End of the event, when staking can be sweeped\n    uint public finishDate;\n\n    // uPortAddress => walletAddress\n    mapping (address => address) public userStakedAddress;\n\n    // ETH amount staked by a given uPort address\n    mapping (address => uint256) public stakedAmount;\n\n\n    constructor(address _grantSigner, uint _finishDate) public {\n        grantSigner = _grantSigner;\n        finishDate = _finishDate;\n    }\n\n    // Public functions\n\n    // function allow the staking for a participant\n    function stake(address _userUportAddress, uint _expiryDate, bytes _signature) public payable {\n        bytes32 hashMessage = keccak256(abi.encodePacked(_userUportAddress, msg.value, _expiryDate));\n        address signer = hashMessage.toEthSignedMessageHash().recover(_signature);\n\n        require(signer == grantSigner, \"Signature is not valid\");\n        require(block.timestamp < _expiryDate, \"Grant is expired\");\n        require(userStakedAddress[_userUportAddress] == 0, \"User has already staked!\");\n\n        userStakedAddress[_userUportAddress] = msg.sender;\n        stakedAmount[_userUportAddress] = msg.value;\n\n        emit UserStake(_userUportAddress, msg.sender, msg.value);\n    }\n\n    // function allow the staking for a participant\n    function recoupStake(address _userUportAddress, uint _expiryDate, bytes _signature) public {\n        bytes32 hashMessage = keccak256(abi.encodePacked(_userUportAddress, _expiryDate));\n        address signer = hashMessage.toEthSignedMessageHash().recover(_signature);\n\n        require(signer == grantSigner, \"Signature is not valid\");\n        require(block.timestamp < _expiryDate, \"Grant is expired\");\n        require(userStakedAddress[_userUportAddress] != 0, \"User has not staked!\");\n\n        address stakedBy = userStakedAddress[_userUportAddress];\n        uint256 amount = stakedAmount[_userUportAddress];\n        stakedAmount[_userUportAddress] = 0;\n\n        stakedBy.transfer(amount);\n\n        emit UserRecoupStake(_userUportAddress, stakedBy, amount);\n    }\n\n    // Owner functions\n\n    function setGrantSigner(address _signer) public onlyOwner {\n        require(_signer != address(0x0), \"address is null\");\n        grantSigner = _signer;\n    }\n\n    function sweepStakes() public onlyOwner {\n        require(block.timestamp > finishDate, \"EthDenver is not over yet!\");\n        owner.transfer(address(this).balance);\n    }\n\n}",
  "sourcePath": "/Users/joaoaguiam/Documents/Joao2017/Dev/taiga-market/ethdenver-staking-contracts/contracts/ETHDenverStaking.sol",
  "compiler": {
    "name": "solc",
    "version": "0.4.24+commit.e67f0147.Emscripten.clang"
  },
  "schemaVersion": "2.0.1",
  "updatedAt": "2018-10-18T06:57:08.073Z"
}