{
  "contractName": "SignatureBouncer",
  "abi": [
    {
      "constant": true,
      "inputs": [
        {
          "name": "_operator",
          "type": "address"
        },
        {
          "name": "_role",
          "type": "string"
        }
      ],
      "name": "checkRole",
      "outputs": [],
      "payable": false,
      "stateMutability": "view",
      "type": "function"
    },
    {
      "constant": true,
      "inputs": [
        {
          "name": "_operator",
          "type": "address"
        },
        {
          "name": "_role",
          "type": "string"
        }
      ],
      "name": "hasRole",
      "outputs": [
        {
          "name": "",
          "type": "bool"
        }
      ],
      "payable": false,
      "stateMutability": "view",
      "type": "function"
    },
    {
      "constant": false,
      "inputs": [],
      "name": "renounceOwnership",
      "outputs": [],
      "payable": false,
      "stateMutability": "nonpayable",
      "type": "function"
    },
    {
      "constant": true,
      "inputs": [],
      "name": "owner",
      "outputs": [
        {
          "name": "",
          "type": "address"
        }
      ],
      "payable": false,
      "stateMutability": "view",
      "type": "function"
    },
    {
      "constant": true,
      "inputs": [],
      "name": "ROLE_BOUNCER",
      "outputs": [
        {
          "name": "",
          "type": "string"
        }
      ],
      "payable": false,
      "stateMutability": "view",
      "type": "function"
    },
    {
      "constant": false,
      "inputs": [
        {
          "name": "_newOwner",
          "type": "address"
        }
      ],
      "name": "transferOwnership",
      "outputs": [],
      "payable": false,
      "stateMutability": "nonpayable",
      "type": "function"
    },
    {
      "anonymous": false,
      "inputs": [
        {
          "indexed": true,
          "name": "operator",
          "type": "address"
        },
        {
          "indexed": false,
          "name": "role",
          "type": "string"
        }
      ],
      "name": "RoleAdded",
      "type": "event"
    },
    {
      "anonymous": false,
      "inputs": [
        {
          "indexed": true,
          "name": "operator",
          "type": "address"
        },
        {
          "indexed": false,
          "name": "role",
          "type": "string"
        }
      ],
      "name": "RoleRemoved",
      "type": "event"
    },
    {
      "anonymous": false,
      "inputs": [
        {
          "indexed": true,
          "name": "previousOwner",
          "type": "address"
        }
      ],
      "name": "OwnershipRenounced",
      "type": "event"
    },
    {
      "anonymous": false,
      "inputs": [
        {
          "indexed": true,
          "name": "previousOwner",
          "type": "address"
        },
        {
          "indexed": true,
          "name": "newOwner",
          "type": "address"
        }
      ],
      "name": "OwnershipTransferred",
      "type": "event"
    },
    {
      "constant": false,
      "inputs": [
        {
          "name": "_bouncer",
          "type": "address"
        }
      ],
      "name": "addBouncer",
      "outputs": [],
      "payable": false,
      "stateMutability": "nonpayable",
      "type": "function"
    },
    {
      "constant": false,
      "inputs": [
        {
          "name": "_bouncer",
          "type": "address"
        }
      ],
      "name": "removeBouncer",
      "outputs": [],
      "payable": false,
      "stateMutability": "nonpayable",
      "type": "function"
    }
  ],
  "bytecode": "0x608060405260008054600160a060020a0319163317905561083c806100256000396000f30060806040526004361061008d5763ffffffff7c01000000000000000000000000000000000000000000000000000000006000350416630988ca8c81146100925780631479290e146100fb578063217fe6c61461011c578063715018a614610197578063888764c8146101ac5780638da5cb5b146101cd578063d466ab6b146101fe578063f2fde38b14610288575b600080fd5b34801561009e57600080fd5b5060408051602060046024803582810135601f81018590048502860185019096528585526100f9958335600160a060020a03169536956044949193909101919081908401838280828437509497506102a99650505050505050565b005b34801561010757600080fd5b506100f9600160a060020a0360043516610317565b34801561012857600080fd5b5060408051602060046024803582810135601f8101859004850286018501909652858552610183958335600160a060020a03169536956044949193909101919081908401838280828437509497506103859650505050505050565b604080519115158252519081900360200190f35b3480156101a357600080fd5b506100f96103f8565b3480156101b857600080fd5b506100f9600160a060020a0360043516610464565b3480156101d957600080fd5b506101e26104cf565b60408051600160a060020a039092168252519081900360200190f35b34801561020a57600080fd5b506102136104de565b6040805160208082528351818301528351919283929083019185019080838360005b8381101561024d578181015183820152602001610235565b50505050905090810190601f16801561027a5780820380516001836020036101000a031916815260200191505b509250505060405180910390f35b34801561029457600080fd5b506100f9600160a060020a0360043516610515565b610313826001836040518082805190602001908083835b602083106102df5780518252601f1990920191602091820191016102c0565b51815160209384036101000a6000190180199092169116179052920194855250604051938490030190922092915050610535565b5050565b600054600160a060020a0316331461032e57600080fd5b600160a060020a038116151561034357600080fd5b610382816040805190810160405280600781526020017f626f756e6365720000000000000000000000000000000000000000000000000081525061054a565b50565b60006103f1836001846040518082805190602001908083835b602083106103bd5780518252601f19909201916020918201910161039e565b51815160209384036101000a600019018019909216911617905292019485525060405193849003019092209291505061065b565b9392505050565b600054600160a060020a0316331461040f57600080fd5b60008054604051600160a060020a03909116917ff8df31144d9c2f0f6b59d69b8b98abd5459d07f2742c4df920b25aae33c6482091a26000805473ffffffffffffffffffffffffffffffffffffffff19169055565b600054600160a060020a0316331461047b57600080fd5b600160a060020a038116151561049057600080fd5b610382816040805190810160405280600781526020017f626f756e6365720000000000000000000000000000000000000000000000000081525061067a565b600054600160a060020a031681565b60408051808201909152600781527f626f756e63657200000000000000000000000000000000000000000000000000602082015281565b600054600160a060020a0316331461052c57600080fd5b6103828161074c565b61053f828261065b565b151561031357600080fd5b6105b4826001836040518082805190602001908083835b602083106105805780518252601f199092019160209182019101610561565b51815160209384036101000a60001901801990921691161790529201948552506040519384900301909220929150506107c9565b81600160a060020a03167fd211483f91fc6eff862467f8de606587a30c8fc9981056f051b897a418df803a826040518080602001828103825283818151815260200191508051906020019080838360005b8381101561061d578181015183820152602001610605565b50505050905090810190601f16801561064a5780820380516001836020036101000a031916815260200191505b509250505060405180910390a25050565b600160a060020a03166000908152602091909152604090205460ff1690565b6106e4826001836040518082805190602001908083835b602083106106b05780518252601f199092019160209182019101610691565b51815160209384036101000a60001901801990921691161790529201948552506040519384900301909220929150506107eb565b81600160a060020a03167fbfec83d64eaa953f2708271a023ab9ee82057f8f3578d548c1a4ba0b5b700489826040518080602001828103825283818151815260200191508051906020019080838360008381101561061d578181015183820152602001610605565b600160a060020a038116151561076157600080fd5b60008054604051600160a060020a03808516939216917f8be0079c531659141344cd1fd0a4f28419497f9722a3daafe3b4186f6b6457e091a36000805473ffffffffffffffffffffffffffffffffffffffff1916600160a060020a0392909216919091179055565b600160a060020a0316600090815260209190915260409020805460ff19169055565b600160a060020a0316600090815260209190915260409020805460ff191660011790555600a165627a7a72305820a9711231898a5d8a41faac4e2f29095862f90850809cb0d34a895773282dfb270029",
  "source": "pragma solidity ^0.4.24;\n\nimport \"../ownership/Ownable.sol\";\nimport \"../access/rbac/RBAC.sol\";\nimport \"../ECRecovery.sol\";\n\n\n/**\n * @title SignatureBouncer\n * @author PhABC, Shrugs and aflesher\n * @dev Bouncer allows users to submit a signature as a permission to do an action.\n * If the signature is from one of the authorized bouncer addresses, the signature\n * is valid. The owner of the contract adds/removes bouncers.\n * Bouncer addresses can be individual servers signing grants or different\n * users within a decentralized club that have permission to invite other members.\n * This technique is useful for whitelists and airdrops; instead of putting all\n * valid addresses on-chain, simply sign a grant of the form\n * keccak256(abi.encodePacked(`:contractAddress` + `:granteeAddress`)) using a valid bouncer address.\n * Then restrict access to your crowdsale/whitelist/airdrop using the\n * `onlyValidSignature` modifier (or implement your own using isValidSignature).\n * In addition to `onlyValidSignature`, `onlyValidSignatureAndMethod` and\n * `onlyValidSignatureAndData` can be used to restrict access to only a given method\n * or a given method with given parameters respectively.\n * See the tests Bouncer.test.js for specific usage examples.\n * @notice A method that uses the `onlyValidSignatureAndData` modifier must make the _sig\n * parameter the \"last\" parameter. You cannot sign a message that has its own\n * signature in it so the last 128 bytes of msg.data (which represents the\n * length of the _sig data and the _sig data itself) is ignored when validating.\n * Also non fixed sized parameters make constructing the data in the signature\n * much more complex. See https://ethereum.stackexchange.com/a/50616 for more details.\n */\ncontract SignatureBouncer is Ownable, RBAC {\n  using ECRecovery for bytes32;\n\n  string public constant ROLE_BOUNCER = \"bouncer\";\n  uint constant METHOD_ID_SIZE = 4;\n  // signature size is 65 bytes (tightly packed v + r + s), but gets padded to 96 bytes\n  uint constant SIGNATURE_SIZE = 96;\n\n  /**\n   * @dev requires that a valid signature of a bouncer was provided\n   */\n  modifier onlyValidSignature(bytes _sig)\n  {\n    require(isValidSignature(msg.sender, _sig));\n    _;\n  }\n\n  /**\n   * @dev requires that a valid signature with a specifed method of a bouncer was provided\n   */\n  modifier onlyValidSignatureAndMethod(bytes _sig)\n  {\n    require(isValidSignatureAndMethod(msg.sender, _sig));\n    _;\n  }\n\n  /**\n   * @dev requires that a valid signature with a specifed method and params of a bouncer was provided\n   */\n  modifier onlyValidSignatureAndData(bytes _sig)\n  {\n    require(isValidSignatureAndData(msg.sender, _sig));\n    _;\n  }\n\n  /**\n   * @dev allows the owner to add additional bouncer addresses\n   */\n  function addBouncer(address _bouncer)\n    public\n    onlyOwner\n  {\n    require(_bouncer != address(0));\n    addRole(_bouncer, ROLE_BOUNCER);\n  }\n\n  /**\n   * @dev allows the owner to remove bouncer addresses\n   */\n  function removeBouncer(address _bouncer)\n    public\n    onlyOwner\n  {\n    require(_bouncer != address(0));\n    removeRole(_bouncer, ROLE_BOUNCER);\n  }\n\n  /**\n   * @dev is the signature of `this + sender` from a bouncer?\n   * @return bool\n   */\n  function isValidSignature(address _address, bytes _sig)\n    internal\n    view\n    returns (bool)\n  {\n    return isValidDataHash(\n      keccak256(abi.encodePacked(address(this), _address)),\n      _sig\n    );\n  }\n\n  /**\n   * @dev is the signature of `this + sender + methodId` from a bouncer?\n   * @return bool\n   */\n  function isValidSignatureAndMethod(address _address, bytes _sig)\n    internal\n    view\n    returns (bool)\n  {\n    bytes memory data = new bytes(METHOD_ID_SIZE);\n    for (uint i = 0; i < data.length; i++) {\n      data[i] = msg.data[i];\n    }\n    return isValidDataHash(\n      keccak256(abi.encodePacked(address(this), _address, data)),\n      _sig\n    );\n  }\n\n  /**\n    * @dev is the signature of `this + sender + methodId + params(s)` from a bouncer?\n    * @notice the _sig parameter of the method being validated must be the \"last\" parameter\n    * @return bool\n    */\n  function isValidSignatureAndData(address _address, bytes _sig)\n    internal\n    view\n    returns (bool)\n  {\n    require(msg.data.length > SIGNATURE_SIZE);\n    bytes memory data = new bytes(msg.data.length - SIGNATURE_SIZE);\n    for (uint i = 0; i < data.length; i++) {\n      data[i] = msg.data[i];\n    }\n    return isValidDataHash(\n      keccak256(abi.encodePacked(address(this), _address, data)),\n      _sig\n    );\n  }\n\n  /**\n   * @dev internal function to convert a hash to an eth signed message\n   * and then recover the signature and check it against the bouncer role\n   * @return bool\n   */\n  function isValidDataHash(bytes32 _hash, bytes _sig)\n    internal\n    view\n    returns (bool)\n  {\n    address signer = _hash\n      .toEthSignedMessageHash()\n      .recover(_sig);\n    return hasRole(signer, ROLE_BOUNCER);\n  }\n}\n",
  "sourcePath": "/Users/joaoaguiam/Documents/Joao2017/Dev/taiga-market/ethdenver-staking-contracts/node_modules/zeppelin-solidity/contracts/access/SignatureBouncer.sol",
  "compiler": {
    "name": "solc",
    "version": "0.4.24+commit.e67f0147.Emscripten.clang"
  },
  "schemaVersion": "2.0.1",
  "updatedAt": "2018-10-05T22:47:02.481Z"
}